{
  "contractName": "NameRegisteringService",
  "abi": [
    {
      "inputs": [],
      "stateMutability": "nonpayable",
      "type": "constructor"
    },
    {
      "anonymous": false,
      "inputs": [
        {
          "indexed": true,
          "internalType": "uint256",
          "name": "timestamp",
          "type": "uint256"
        },
        {
          "indexed": false,
          "internalType": "bytes",
          "name": "domainName",
          "type": "bytes"
        },
        {
          "indexed": false,
          "internalType": "bytes12",
          "name": "topLevel",
          "type": "bytes12"
        },
        {
          "indexed": false,
          "internalType": "bytes15",
          "name": "newIp",
          "type": "bytes15"
        }
      ],
      "name": "LogDomainNameEdited",
      "type": "event"
    },
    {
      "anonymous": false,
      "inputs": [
        {
          "indexed": true,
          "internalType": "uint256",
          "name": "timestamp",
          "type": "uint256"
        },
        {
          "indexed": false,
          "internalType": "bytes",
          "name": "domainName",
          "type": "bytes"
        },
        {
          "indexed": false,
          "internalType": "bytes12",
          "name": "topLevel",
          "type": "bytes12"
        }
      ],
      "name": "LogDomainNameRegistered",
      "type": "event"
    },
    {
      "anonymous": false,
      "inputs": [
        {
          "indexed": true,
          "internalType": "uint256",
          "name": "timestamp",
          "type": "uint256"
        },
        {
          "indexed": false,
          "internalType": "bytes",
          "name": "domainName",
          "type": "bytes"
        },
        {
          "indexed": false,
          "internalType": "bytes12",
          "name": "topLevel",
          "type": "bytes12"
        },
        {
          "indexed": true,
          "internalType": "address",
          "name": "owner",
          "type": "address"
        }
      ],
      "name": "LogDomainNameRenewed",
      "type": "event"
    },
    {
      "anonymous": false,
      "inputs": [
        {
          "indexed": true,
          "internalType": "uint256",
          "name": "timestamp",
          "type": "uint256"
        },
        {
          "indexed": false,
          "internalType": "bytes",
          "name": "domainName",
          "type": "bytes"
        },
        {
          "indexed": false,
          "internalType": "bytes12",
          "name": "topLevel",
          "type": "bytes12"
        },
        {
          "indexed": true,
          "internalType": "address",
          "name": "owner",
          "type": "address"
        },
        {
          "indexed": false,
          "internalType": "address",
          "name": "newOwner",
          "type": "address"
        }
      ],
      "name": "LogDomainNameTransferred",
      "type": "event"
    },
    {
      "anonymous": false,
      "inputs": [
        {
          "indexed": true,
          "internalType": "uint256",
          "name": "timestamp",
          "type": "uint256"
        },
        {
          "indexed": true,
          "internalType": "address",
          "name": "_owner",
          "type": "address"
        },
        {
          "indexed": false,
          "internalType": "uint256",
          "name": "amount",
          "type": "uint256"
        }
      ],
      "name": "LogPurchaseChangeReturned",
      "type": "event"
    },
    {
      "anonymous": false,
      "inputs": [
        {
          "indexed": true,
          "internalType": "uint256",
          "name": "timestamp",
          "type": "uint256"
        },
        {
          "indexed": false,
          "internalType": "bytes",
          "name": "domainName",
          "type": "bytes"
        },
        {
          "indexed": false,
          "internalType": "uint256",
          "name": "amountInWei",
          "type": "uint256"
        },
        {
          "indexed": false,
          "internalType": "uint256",
          "name": "expires",
          "type": "uint256"
        }
      ],
      "name": "LogReceipt",
      "type": "event"
    },
    {
      "anonymous": false,
      "inputs": [
        {
          "indexed": true,
          "internalType": "address",
          "name": "previousOwner",
          "type": "address"
        },
        {
          "indexed": true,
          "internalType": "address",
          "name": "newOwner",
          "type": "address"
        }
      ],
      "name": "OwnershipTransferred",
      "type": "event"
    },
    {
      "inputs": [],
      "name": "BYTES_DEFAULT_VALUE",
      "outputs": [
        {
          "internalType": "bytes1",
          "name": "",
          "type": "bytes1"
        }
      ],
      "stateMutability": "view",
      "type": "function"
    },
    {
      "inputs": [],
      "name": "DOMAIN_EXPIRATION_DATE",
      "outputs": [
        {
          "internalType": "uint256",
          "name": "",
          "type": "uint256"
        }
      ],
      "stateMutability": "view",
      "type": "function"
    },
    {
      "inputs": [],
      "name": "DOMAIN_NAME_COST",
      "outputs": [
        {
          "internalType": "uint256",
          "name": "",
          "type": "uint256"
        }
      ],
      "stateMutability": "view",
      "type": "function"
    },
    {
      "inputs": [],
      "name": "DOMAIN_NAME_COST_SHORT_ADDITION",
      "outputs": [
        {
          "internalType": "uint256",
          "name": "",
          "type": "uint256"
        }
      ],
      "stateMutability": "view",
      "type": "function"
    },
    {
      "inputs": [],
      "name": "DOMAIN_NAME_EXPENSIVE_LENGTH",
      "outputs": [
        {
          "internalType": "uint8",
          "name": "",
          "type": "uint8"
        }
      ],
      "stateMutability": "view",
      "type": "function"
    },
    {
      "inputs": [],
      "name": "DOMAIN_NAME_MIN_LENGTH",
      "outputs": [
        {
          "internalType": "uint8",
          "name": "",
          "type": "uint8"
        }
      ],
      "stateMutability": "view",
      "type": "function"
    },
    {
      "inputs": [],
      "name": "TOP_LEVEL_DOMAIN_MIN_LENGTH",
      "outputs": [
        {
          "internalType": "uint8",
          "name": "",
          "type": "uint8"
        }
      ],
      "stateMutability": "view",
      "type": "function"
    },
    {
      "inputs": [
        {
          "internalType": "bytes32",
          "name": "",
          "type": "bytes32"
        }
      ],
      "name": "domainNames",
      "outputs": [
        {
          "internalType": "bytes",
          "name": "name",
          "type": "bytes"
        },
        {
          "internalType": "bytes12",
          "name": "topLevel",
          "type": "bytes12"
        },
        {
          "internalType": "address",
          "name": "owner",
          "type": "address"
        },
        {
          "internalType": "bytes15",
          "name": "ip",
          "type": "bytes15"
        },
        {
          "internalType": "uint256",
          "name": "expires",
          "type": "uint256"
        }
      ],
      "stateMutability": "view",
      "type": "function"
    },
    {
      "inputs": [],
      "name": "owner",
      "outputs": [
        {
          "internalType": "address",
          "name": "",
          "type": "address"
        }
      ],
      "stateMutability": "view",
      "type": "function"
    },
    {
      "inputs": [
        {
          "internalType": "address",
          "name": "",
          "type": "address"
        },
        {
          "internalType": "uint256",
          "name": "",
          "type": "uint256"
        }
      ],
      "name": "paymentReceipts",
      "outputs": [
        {
          "internalType": "bytes32",
          "name": "",
          "type": "bytes32"
        }
      ],
      "stateMutability": "view",
      "type": "function"
    },
    {
      "inputs": [
        {
          "internalType": "bytes32",
          "name": "",
          "type": "bytes32"
        }
      ],
      "name": "receiptDetails",
      "outputs": [
        {
          "internalType": "uint256",
          "name": "amountPaidWei",
          "type": "uint256"
        },
        {
          "internalType": "uint256",
          "name": "timestamp",
          "type": "uint256"
        },
        {
          "internalType": "uint256",
          "name": "expires",
          "type": "uint256"
        }
      ],
      "stateMutability": "view",
      "type": "function"
    },
    {
      "inputs": [],
      "name": "renounceOwnership",
      "outputs": [],
      "stateMutability": "nonpayable",
      "type": "function"
    },
    {
      "inputs": [
        {
          "internalType": "address",
          "name": "newOwner",
          "type": "address"
        }
      ],
      "name": "transferOwnership",
      "outputs": [],
      "stateMutability": "nonpayable",
      "type": "function"
    },
    {
      "inputs": [
        {
          "internalType": "bytes",
          "name": "domain",
          "type": "bytes"
        },
        {
          "internalType": "bytes12",
          "name": "topLevel",
          "type": "bytes12"
        },
        {
          "internalType": "bytes15",
          "name": "ip",
          "type": "bytes15"
        }
      ],
      "name": "register",
      "outputs": [],
      "stateMutability": "payable",
      "type": "function"
    },
    {
      "inputs": [
        {
          "internalType": "bytes",
          "name": "domain",
          "type": "bytes"
        },
        {
          "internalType": "bytes12",
          "name": "topLevel",
          "type": "bytes12"
        }
      ],
      "name": "renewDomainName",
      "outputs": [],
      "stateMutability": "payable",
      "type": "function"
    },
    {
      "inputs": [
        {
          "internalType": "bytes",
          "name": "domain",
          "type": "bytes"
        },
        {
          "internalType": "bytes12",
          "name": "topLevel",
          "type": "bytes12"
        },
        {
          "internalType": "bytes15",
          "name": "newIp",
          "type": "bytes15"
        }
      ],
      "name": "edit",
      "outputs": [],
      "stateMutability": "nonpayable",
      "type": "function"
    },
    {
      "inputs": [
        {
          "internalType": "bytes",
          "name": "domain",
          "type": "bytes"
        },
        {
          "internalType": "bytes12",
          "name": "topLevel",
          "type": "bytes12"
        },
        {
          "internalType": "address",
          "name": "newOwner",
          "type": "address"
        }
      ],
      "name": "transferDomain",
      "outputs": [],
      "stateMutability": "nonpayable",
      "type": "function"
    },
    {
      "inputs": [
        {
          "internalType": "bytes",
          "name": "domain",
          "type": "bytes"
        },
        {
          "internalType": "bytes12",
          "name": "topLevel",
          "type": "bytes12"
        }
      ],
      "name": "getIP",
      "outputs": [
        {
          "internalType": "bytes15",
          "name": "",
          "type": "bytes15"
        }
      ],
      "stateMutability": "view",
      "type": "function"
    },
    {
      "inputs": [
        {
          "internalType": "bytes",
          "name": "domain",
          "type": "bytes"
        }
      ],
      "name": "getPrice",
      "outputs": [
        {
          "internalType": "uint256",
          "name": "",
          "type": "uint256"
        }
      ],
      "stateMutability": "pure",
      "type": "function"
    },
    {
      "inputs": [],
      "name": "getReceiptList",
      "outputs": [
        {
          "internalType": "bytes32[]",
          "name": "",
          "type": "bytes32[]"
        }
      ],
      "stateMutability": "view",
      "type": "function"
    },
    {
      "inputs": [
        {
          "internalType": "bytes32",
          "name": "receiptKey",
          "type": "bytes32"
        }
      ],
      "name": "getReceipt",
      "outputs": [
        {
          "internalType": "uint256",
          "name": "",
          "type": "uint256"
        },
        {
          "internalType": "uint256",
          "name": "",
          "type": "uint256"
        },
        {
          "internalType": "uint256",
          "name": "",
          "type": "uint256"
        }
      ],
      "stateMutability": "view",
      "type": "function"
    },
    {
      "inputs": [
        {
          "internalType": "bytes",
          "name": "domain",
          "type": "bytes"
        },
        {
          "internalType": "bytes12",
          "name": "topLevel",
          "type": "bytes12"
        }
      ],
      "name": "getDomainHash",
      "outputs": [
        {
          "internalType": "bytes32",
          "name": "",
          "type": "bytes32"
        }
      ],
      "stateMutability": "pure",
      "type": "function"
    },
    {
      "inputs": [
        {
          "internalType": "bytes",
          "name": "domain",
          "type": "bytes"
        },
        {
          "internalType": "bytes12",
          "name": "topLevel",
          "type": "bytes12"
        }
      ],
      "name": "getReceiptKey",
      "outputs": [
        {
          "internalType": "bytes32",
          "name": "",
          "type": "bytes32"
        }
      ],
      "stateMutability": "view",
      "type": "function"
    },
    {
      "inputs": [],
      "name": "withdraw",
      "outputs": [],
      "stateMutability": "nonpayable",
      "type": "function"
    }
  ],
  "bytecode": "0x60806040523480156200001157600080fd5b5062000032620000266200003860201b60201c565b6200004060201b60201c565b62000104565b600033905090565b60008060009054906101000a900473ffffffffffffffffffffffffffffffffffffffff169050816000806101000a81548173ffffffffffffffffffffffffffffffffffffffff021916908373ffffffffffffffffffffffffffffffffffffffff1602179055508173ffffffffffffffffffffffffffffffffffffffff168173ffffffffffffffffffffffffffffffffffffffff167f8be0079c531659141344cd1fd0a4f28419497f9722a3daafe3b4186f6b6457e060405160405180910390a35050565b6124ca80620001146000396000f3fe60806040526004361061014b5760003560e01c806373ff42a2116100b6578063b7a1ff8f1161006f578063b7a1ff8f1461047e578063d678ddf5146104bd578063d8d57733146104e8578063f2fde38b14610513578063f30b70e31461053c578063fcecbb61146105655761014b565b806373ff42a21461037b57806378129e19146103a65780637fa594d3146103cf5780638da5cb5b1461040c578063a79eebbc14610437578063b4d9e77b146104625761014b565b80634e03255a116101085780634e03255a146102575780634e6fcc1414610294578063666916f8146102bf5780636ac98cdf146102ea5780636b4dd15814610327578063715018a6146103645761014b565b806304f9c16d14610150578063080f81ba1461018d578063148d9417146101b85780631e932159146101e3578063316d2d78146101ff5780633ccfd60b14610240575b600080fd5b34801561015c57600080fd5b50610177600480360381019061017291906117c9565b6105a4565b6040516101849190611e1f565b60405180910390f35b34801561019957600080fd5b506101a26105d5565b6040516101af919061205e565b60405180910390f35b3480156101c457600080fd5b506101cd6105e1565b6040516101da919061205e565b60405180910390f35b6101fd60048036038101906101f8919061192a565b6105ed565b005b34801561020b57600080fd5b5061022660048036038101906102219190611805565b610a20565b604051610237959493929190611ea8565b60405180910390f35b34801561024c57600080fd5b50610255610b18565b005b34801561026357600080fd5b5061027e6004803603810190610279919061186f565b610bdd565b60405161028b9190611e1f565b60405180910390f35b3480156102a057600080fd5b506102a9610c14565b6040516102b691906120b0565b60405180910390f35b3480156102cb57600080fd5b506102d4610c19565b6040516102e191906120b0565b60405180910390f35b3480156102f657600080fd5b50610311600480360381019061030c919061186f565b610c1e565b60405161031e9190611e1f565b60405180910390f35b34801561033357600080fd5b5061034e6004803603810190610349919061182e565b610c51565b60405161035b919061205e565b60405180910390f35b34801561037057600080fd5b50610379610c8c565b005b34801561038757600080fd5b50610390610d14565b60405161039d919061205e565b60405180910390f35b3480156103b257600080fd5b506103cd60048036038101906103c8919061192a565b610d1c565b005b3480156103db57600080fd5b506103f660048036038101906103f1919061186f565b610e60565b6040516104039190611de9565b60405180910390f35b34801561041857600080fd5b50610421610e9c565b60405161042e9190611dac565b60405180910390f35b34801561044357600080fd5b5061044c610ec5565b6040516104599190611dc7565b60405180910390f35b61047c6004803603810190610477919061186f565b610f5a565b005b34801561048a57600080fd5b506104a560048036038101906104a09190611805565b61122d565b6040516104b493929190612079565b60405180910390f35b3480156104c957600080fd5b506104d2611257565b6040516104df91906120b0565b60405180910390f35b3480156104f457600080fd5b506104fd61125c565b60405161050a9190611e04565b60405180910390f35b34801561051f57600080fd5b5061053a600480360381019061053591906117a0565b611264565b005b34801561054857600080fd5b50610563600480360381019061055e91906118c3565b61135c565b005b34801561057157600080fd5b5061058c60048036038101906105879190611805565b611509565b60405161059b93929190612079565b60405180910390f35b600260205281600052604060002081815481106105c057600080fd5b90600052602060002001600091509150505481565b670de0b6b3a764000081565b670de0b6b3a764000081565b82600560ff1681511015610636576040517f08c379a000000000000000000000000000000000000000000000000000000000815260040161062d90611fde565b60405180910390fd5b82600160ff16600c60ff161015610682576040517f08c379a000000000000000000000000000000000000000000000000000000000815260040161067990611f7e565b60405180910390fd5b848460006106908383610c1e565b9050426001600083815260200190815260200160002060030154106106ea576040517f08c379a00000000000000000000000000000000000000000000000000000000081526004016106e19061201e565b60405180910390fd5b8760006106f682610c51565b90508034101561073b576040517f08c379a000000000000000000000000000000000000000000000000000000000815260040161073290611fbe565b60405180910390fd5b60006107478b8b610c1e565b905060006040518060a001604052808d81526020018c73ffffffffffffffffffffffffffffffffffffffff191681526020013373ffffffffffffffffffffffffffffffffffffffff1681526020018b70ffffffffffffffffffffffffffffffffff191681526020016301e13380426107bf919061219d565b8152509050806001600084815260200190815260200160002060008201518160000190805190602001906107f492919061162c565b5060208201518160010160006101000a8154816bffffffffffffffffffffffff021916908360a01c0217905550604082015181600101600c6101000a81548173ffffffffffffffffffffffffffffffffffffffff021916908373ffffffffffffffffffffffffffffffffffffffff16021790555060608201518160020160006101000a8154816effffffffffffffffffffffffffffff021916908360881c02179055506080820151816003015590505060006040518060600160405280670de0b6b3a764000081526020014281526020016301e13380426108d5919061219d565b815250905060006108e68e8e610bdd565b9050600260003373ffffffffffffffffffffffffffffffffffffffff1673ffffffffffffffffffffffffffffffffffffffff1681526020019081526020016000208190806001815401808255809150506001900390600052602060002001600090919091909150558160036000838152602001908152602001600020600082015181600001556020820151816001015560408201518160020155905050427f690691adf5dcf1256b88c5de131a8bbbf6cfa0dc88d43b4b8d52e326f0021b868f670de0b6b3a76400006301e13380426109bf919061219d565b6040516109ce93929190611f40565b60405180910390a2427f866386c63f5535a3e914902c8867674abc47d0cf171c07e538ec40525fe8033b8f8f604051610a08929190611e3a565b60405180910390a25050505050505050505050505050565b6001602052806000526040600020600091509050806000018054610a439061230c565b80601f0160208091040260200160405190810160405280929190818152602001828054610a6f9061230c565b8015610abc5780601f10610a9157610100808354040283529160200191610abc565b820191906000526020600020905b815481529060010190602001808311610a9f57829003601f168201915b5050505050908060010160009054906101000a900460a01b9080600101600c9054906101000a900473ffffffffffffffffffffffffffffffffffffffff16908060020160009054906101000a900460881b908060030154905085565b610b20611560565b73ffffffffffffffffffffffffffffffffffffffff16610b3e610e9c565b73ffffffffffffffffffffffffffffffffffffffff1614610b94576040517f08c379a0000000000000000000000000000000000000000000000000000000008152600401610b8b90611ffe565b60405180910390fd5b3373ffffffffffffffffffffffffffffffffffffffff166108fc479081150290604051600060405180830381858888f19350505050158015610bda573d6000803e3d6000fd5b50565b600082823342604051602001610bf69493929190611d62565b60405160208183030381529060405280519060200120905092915050565b600881565b600581565b60008282604051602001610c33929190611d3a565b60405160208183030381529060405280519060200120905092915050565b6000600860ff1682511015610c7b57670de0b6b3a764000080610c74919061219d565b9050610c87565b670de0b6b3a764000090505b919050565b610c94611560565b73ffffffffffffffffffffffffffffffffffffffff16610cb2610e9c565b73ffffffffffffffffffffffffffffffffffffffff1614610d08576040517f08c379a0000000000000000000000000000000000000000000000000000000008152600401610cff90611ffe565b60405180910390fd5b610d126000611568565b565b6301e1338081565b82826000610d2a8383610c1e565b90503373ffffffffffffffffffffffffffffffffffffffff1660016000838152602001908152602001600020600101600c9054906101000a900473ffffffffffffffffffffffffffffffffffffffff1673ffffffffffffffffffffffffffffffffffffffff1614610dd0576040517f08c379a0000000000000000000000000000000000000000000000000000000008152600401610dc79061203e565b60405180910390fd5b6000610ddc8787610c1e565b9050846001600083815260200190815260200160002060020160006101000a8154816effffffffffffffffffffffffffffff021916908360881c0217905550427f26bdc0bb2172e6ed279fb9f78c96d130ce52f594c8cfedcc0aea541da98c5982888888604051610e4f93929190611f02565b60405180910390a250505050505050565b600080610e6d8484610c1e565b90506001600082815260200190815260200160002060020160009054906101000a900460881b91505092915050565b60008060009054906101000a900473ffffffffffffffffffffffffffffffffffffffff16905090565b6060600260003373ffffffffffffffffffffffffffffffffffffffff1673ffffffffffffffffffffffffffffffffffffffff168152602001908152602001600020805480602002602001604051908101604052809291908181526020018280548015610f5057602002820191906000526020600020905b815481526020019060010190808311610f3c575b5050505050905090565b81816000610f688383610c1e565b90503373ffffffffffffffffffffffffffffffffffffffff1660016000838152602001908152602001600020600101600c9054906101000a900473ffffffffffffffffffffffffffffffffffffffff1673ffffffffffffffffffffffffffffffffffffffff161461100e576040517f08c379a00000000000000000000000000000000000000000000000000000000081526004016110059061203e565b60405180910390fd5b84600061101a82610c51565b90508034101561105f576040517f08c379a000000000000000000000000000000000000000000000000000000000815260040161105690611fbe565b60405180910390fd5b600061106b8888610c1e565b90506301e13380600160008381526020019081526020016000206003016000828254611097919061219d565b9250508190555060006040518060600160405280670de0b6b3a764000081526020014281526020016301e13380426110cf919061219d565b815250905060006110e08a8a610bdd565b9050600260003373ffffffffffffffffffffffffffffffffffffffff1673ffffffffffffffffffffffffffffffffffffffff16815260200190815260200160002081908060018154018082558091505060019003906000526020600020016000909190919091505581600360008381526020019081526020016000206000820151816000015560208201518160010155604082015181600201559050503373ffffffffffffffffffffffffffffffffffffffff16427f4164715c0e5c59941e6e13d4801ec49371896676546912145e8325a848d7f4f58c8c6040516111c6929190611e3a565b60405180910390a3427f690691adf5dcf1256b88c5de131a8bbbf6cfa0dc88d43b4b8d52e326f0021b868b670de0b6b3a76400006301e133804261120a919061219d565b60405161121993929190611f40565b60405180910390a250505050505050505050565b60036020528060005260406000206000915090508060000154908060010154908060020154905083565b600181565b600060f81b81565b61126c611560565b73ffffffffffffffffffffffffffffffffffffffff1661128a610e9c565b73ffffffffffffffffffffffffffffffffffffffff16146112e0576040517f08c379a00000000000000000000000000000000000000000000000000000000081526004016112d790611ffe565b60405180910390fd5b600073ffffffffffffffffffffffffffffffffffffffff168173ffffffffffffffffffffffffffffffffffffffff161415611350576040517f08c379a000000000000000000000000000000000000000000000000000000000815260040161134790611f9e565b60405180910390fd5b61135981611568565b50565b8282600061136a8383610c1e565b90503373ffffffffffffffffffffffffffffffffffffffff1660016000838152602001908152602001600020600101600c9054906101000a900473ffffffffffffffffffffffffffffffffffffffff1673ffffffffffffffffffffffffffffffffffffffff1614611410576040517f08c379a00000000000000000000000000000000000000000000000000000000081526004016114079061203e565b60405180910390fd5b600073ffffffffffffffffffffffffffffffffffffffff168473ffffffffffffffffffffffffffffffffffffffff16141561144a57600080fd5b60006114568787610c1e565b90508460016000838152602001908152602001600020600101600c6101000a81548173ffffffffffffffffffffffffffffffffffffffff021916908373ffffffffffffffffffffffffffffffffffffffff1602179055503373ffffffffffffffffffffffffffffffffffffffff16427f4ae77a0d854d432937d6a090209418c3673044142d83c16c9745731194b852708989896040516114f893929190611e6a565b60405180910390a350505050505050565b60008060006003600085815260200190815260200160002060000154600360008681526020019081526020016000206001015460036000878152602001908152602001600020600201549250925092509193909250565b600033905090565b60008060009054906101000a900473ffffffffffffffffffffffffffffffffffffffff169050816000806101000a81548173ffffffffffffffffffffffffffffffffffffffff021916908373ffffffffffffffffffffffffffffffffffffffff1602179055508173ffffffffffffffffffffffffffffffffffffffff168173ffffffffffffffffffffffffffffffffffffffff167f8be0079c531659141344cd1fd0a4f28419497f9722a3daafe3b4186f6b6457e060405160405180910390a35050565b8280546116389061230c565b90600052602060002090601f01602090048101928261165a57600085556116a1565b82601f1061167357805160ff19168380011785556116a1565b828001600101855582156116a1579182015b828111156116a0578251825591602001919060010190611685565b5b5090506116ae91906116b2565b5090565b5b808211156116cb5760008160009055506001016116b3565b5090565b60006116e26116dd846120fc565b6120cb565b9050828152602081018484840111156116fa57600080fd5b6117058482856122ca565b509392505050565b60008135905061171c81612421565b92915050565b60008135905061173181612438565b92915050565b6000813590506117468161244f565b92915050565b60008135905061175b81612466565b92915050565b600082601f83011261177257600080fd5b81356117828482602086016116cf565b91505092915050565b60008135905061179a8161247d565b92915050565b6000602082840312156117b257600080fd5b60006117c08482850161170d565b91505092915050565b600080604083850312156117dc57600080fd5b60006117ea8582860161170d565b92505060206117fb8582860161178b565b9150509250929050565b60006020828403121561181757600080fd5b60006118258482850161174c565b91505092915050565b60006020828403121561184057600080fd5b600082013567ffffffffffffffff81111561185a57600080fd5b61186684828501611761565b91505092915050565b6000806040838503121561188257600080fd5b600083013567ffffffffffffffff81111561189c57600080fd5b6118a885828601611761565b92505060206118b985828601611722565b9150509250929050565b6000806000606084860312156118d857600080fd5b600084013567ffffffffffffffff8111156118f257600080fd5b6118fe86828701611761565b935050602061190f86828701611722565b92505060406119208682870161170d565b9150509250925092565b60008060006060848603121561193f57600080fd5b600084013567ffffffffffffffff81111561195957600080fd5b61196586828701611761565b935050602061197686828701611722565b925050604061198786828701611737565b9150509250925092565b600061199d8383611a71565b60208301905092915050565b6119b2816121f3565b82525050565b6119c96119c4826121f3565b61233e565b82525050565b60006119da8261213c565b6119e4818561215f565b93506119ef8361212c565b8060005b83811015611a20578151611a078882611991565b9750611a1283612152565b9250506001810190506119f3565b5085935050505092915050565b611a3681612231565b82525050565b611a4d611a4882612231565b612350565b82525050565b611a5c8161225d565b82525050565b611a6b81612205565b82525050565b611a7a81612289565b82525050565b611a8981612289565b82525050565b6000611a9a82612147565b611aa48185612170565b9350611ab48185602086016122d9565b611abd81612403565b840191505092915050565b6000611ad382612147565b611add8185612181565b9350611aed8185602086016122d9565b80840191505092915050565b6000611b06601e8361218c565b91507f5468652070726f766964656420544c4420697320746f6f2073686f72742e00006000830152602082019050919050565b6000611b4660268361218c565b91507f4f776e61626c653a206e6577206f776e657220697320746865207a65726f206160008301527f64647265737300000000000000000000000000000000000000000000000000006020830152604082019050919050565b6000611bac60148361218c565b91507f496e73756666696369656e7420616d6f756e742e0000000000000000000000006000830152602082019050919050565b6000611bec60198361218c565b91507f446f6d61696e206e616d6520697320746f6f2073686f72742e000000000000006000830152602082019050919050565b6000611c2c60208361218c565b91507f4f776e61626c653a2063616c6c6572206973206e6f7420746865206f776e65726000830152602082019050919050565b6000611c6c601d8361218c565b91507f446f6d61696e206e616d65206973206e6f7420617661696c61626c652e0000006000830152602082019050919050565b6000611cac60258361218c565b91507f596f7520617265206e6f7420746865206f776e6572206f66207468697320646f60008301527f6d61696e2e0000000000000000000000000000000000000000000000000000006020830152604082019050919050565b611d0e816122b3565b82525050565b611d25611d20826122b3565b61236c565b82525050565b611d34816122bd565b82525050565b6000611d468285611ac8565b9150611d528284611a3c565b600c820191508190509392505050565b6000611d6e8287611ac8565b9150611d7a8286611a3c565b600c82019150611d8a82856119b8565b601482019150611d9a8284611d14565b60208201915081905095945050505050565b6000602082019050611dc160008301846119a9565b92915050565b60006020820190508181036000830152611de181846119cf565b905092915050565b6000602082019050611dfe6000830184611a53565b92915050565b6000602082019050611e196000830184611a62565b92915050565b6000602082019050611e346000830184611a80565b92915050565b60006040820190508181036000830152611e548185611a8f565b9050611e636020830184611a2d565b9392505050565b60006060820190508181036000830152611e848186611a8f565b9050611e936020830185611a2d565b611ea060408301846119a9565b949350505050565b600060a0820190508181036000830152611ec28188611a8f565b9050611ed16020830187611a2d565b611ede60408301866119a9565b611eeb6060830185611a53565b611ef86080830184611d05565b9695505050505050565b60006060820190508181036000830152611f1c8186611a8f565b9050611f2b6020830185611a2d565b611f386040830184611a53565b949350505050565b60006060820190508181036000830152611f5a8186611a8f565b9050611f696020830185611d05565b611f766040830184611d05565b949350505050565b60006020820190508181036000830152611f9781611af9565b9050919050565b60006020820190508181036000830152611fb781611b39565b9050919050565b60006020820190508181036000830152611fd781611b9f565b9050919050565b60006020820190508181036000830152611ff781611bdf565b9050919050565b6000602082019050818103600083015261201781611c1f565b9050919050565b6000602082019050818103600083015261203781611c5f565b9050919050565b6000602082019050818103600083015261205781611c9f565b9050919050565b60006020820190506120736000830184611d05565b92915050565b600060608201905061208e6000830186611d05565b61209b6020830185611d05565b6120a86040830184611d05565b949350505050565b60006020820190506120c56000830184611d2b565b92915050565b6000604051905081810181811067ffffffffffffffff821117156120f2576120f16123d4565b5b8060405250919050565b600067ffffffffffffffff821115612117576121166123d4565b5b601f19601f8301169050602081019050919050565b6000819050602082019050919050565b600081519050919050565b600081519050919050565b6000602082019050919050565b600082825260208201905092915050565b600082825260208201905092915050565b600081905092915050565b600082825260208201905092915050565b60006121a8826122b3565b91506121b3836122b3565b9250827fffffffffffffffffffffffffffffffffffffffffffffffffffffffffffffffff038211156121e8576121e7612376565b5b828201905092915050565b60006121fe82612293565b9050919050565b60007fff0000000000000000000000000000000000000000000000000000000000000082169050919050565b60007fffffffffffffffffffffffff000000000000000000000000000000000000000082169050919050565b60007fffffffffffffffffffffffffffffff000000000000000000000000000000000082169050919050565b6000819050919050565b600073ffffffffffffffffffffffffffffffffffffffff82169050919050565b6000819050919050565b600060ff82169050919050565b82818337600083830152505050565b60005b838110156122f75780820151818401526020810190506122dc565b83811115612306576000848401525b50505050565b6000600282049050600182168061232457607f821691505b60208210811415612338576123376123a5565b5b50919050565b60006123498261235a565b9050919050565b6000819050919050565b600061236582612414565b9050919050565b6000819050919050565b7f4e487b7100000000000000000000000000000000000000000000000000000000600052601160045260246000fd5b7f4e487b7100000000000000000000000000000000000000000000000000000000600052602260045260246000fd5b7f4e487b7100000000000000000000000000000000000000000000000000000000600052604160045260246000fd5b6000601f19601f8301169050919050565b60008160601b9050919050565b61242a816121f3565b811461243557600080fd5b50565b61244181612231565b811461244c57600080fd5b50565b6124588161225d565b811461246357600080fd5b50565b61246f81612289565b811461247a57600080fd5b50565b612486816122b3565b811461249157600080fd5b5056fea2646970667358221220c61ebca98801fd674ebc6ddb41cd38579d73a6a08215cf97c6b48c284fe1901464736f6c63430008000033",
  "immutableReferences": {},
  "source": "// SPDX-License-Identifier: MIT\n\npragma solidity ^0.8.0;\n\nimport \"@openzeppelin/contracts/access/Ownable.sol\";\nimport \"@openzeppelin/contracts/utils/math/SafeMath.sol\";\n\ncontract NameRegisteringService is Ownable {\n    /** USINGS */\n    using SafeMath for uint256;\n\n    /** STRUCTS */\n    struct DomainDetails {\n        bytes name;\n        bytes12 topLevel;\n        address owner;\n        bytes15 ip;\n        uint256 expires;\n    }\n\n    struct Receipt {\n        uint256 amountPaidWei;\n        uint256 timestamp;\n        uint256 expires;\n    }\n\n    /** CONSTANTS */\n    uint256 public constant DOMAIN_NAME_COST = 1 ether;\n    uint256 public constant DOMAIN_NAME_COST_SHORT_ADDITION = 1 ether;\n    uint256 public constant DOMAIN_EXPIRATION_DATE = 365 days;\n    uint8 public constant DOMAIN_NAME_MIN_LENGTH = 5;\n    uint8 public constant DOMAIN_NAME_EXPENSIVE_LENGTH = 8;\n    uint8 public constant TOP_LEVEL_DOMAIN_MIN_LENGTH = 1;\n    bytes1 public constant BYTES_DEFAULT_VALUE = bytes1(0x00);\n\n    /** STATE VARIABLES */\n    mapping(bytes32 => DomainDetails) public domainNames;\n    mapping(address => bytes32[]) public paymentReceipts;\n    mapping(bytes32 => Receipt) public receiptDetails;\n\n    /**\n     * MODIFIERS\n     */\n    modifier isAvailable(bytes memory domain, bytes12 topLevel) {\n        bytes32 domainHash = getDomainHash(domain, topLevel);\n        require(\n            domainNames[domainHash].expires < block.timestamp,\n            \"Domain name is not available.\"\n        );\n        _;\n    }\n\n    modifier collectDomainNamePayment(bytes memory domain) {\n        uint256 domainPrice = getPrice(domain);\n        require(msg.value >= domainPrice, \"Insufficient amount.\");\n        _;\n    }\n\n    modifier isDomainOwner(bytes memory domain, bytes12 topLevel) {\n        bytes32 domainHash = getDomainHash(domain, topLevel);\n        require(\n            domainNames[domainHash].owner == msg.sender,\n            \"You are not the owner of this domain.\"\n        );\n        _;\n    }\n\n    modifier isDomainNameLengthAllowed(bytes memory domain) {\n        require(\n            domain.length >= DOMAIN_NAME_MIN_LENGTH,\n            \"Domain name is too short.\"\n        );\n        _;\n    }\n\n    modifier isTopLevelLengthAllowed(bytes12 topLevel) {\n        require(\n            topLevel.length >= TOP_LEVEL_DOMAIN_MIN_LENGTH,\n            \"The provided TLD is too short.\"\n        );\n        _;\n    }\n\n    /**\n     *  EVENTS\n     */\n    event LogDomainNameRegistered(\n        uint256 indexed timestamp,\n        bytes domainName,\n        bytes12 topLevel\n    );\n\n    event LogDomainNameRenewed(\n        uint256 indexed timestamp,\n        bytes domainName,\n        bytes12 topLevel,\n        address indexed owner\n    );\n\n    event LogDomainNameEdited(\n        uint256 indexed timestamp,\n        bytes domainName,\n        bytes12 topLevel,\n        bytes15 newIp\n    );\n\n    event LogDomainNameTransferred(\n        uint256 indexed timestamp,\n        bytes domainName,\n        bytes12 topLevel,\n        address indexed owner,\n        address newOwner\n    );\n\n    event LogPurchaseChangeReturned(\n        uint256 indexed timestamp,\n        address indexed _owner,\n        uint256 amount\n    );\n\n    event LogReceipt(\n        uint256 indexed timestamp,\n        bytes domainName,\n        uint256 amountInWei,\n        uint256 expires\n    );\n\n    /**\n     * @dev - Constructor of the contract\n     */\n    constructor() public {}\n\n    /*\n     * @dev - function to register domain name\n     * @param domain - domain name to be registered\n     * @param topLevel - domain top level (TLD)\n     * @param ip - the ip of the host\n     */\n    function register(\n        bytes memory domain,\n        bytes12 topLevel,\n        bytes15 ip\n    )\n        public\n        payable\n        isDomainNameLengthAllowed(domain)\n        isTopLevelLengthAllowed(topLevel)\n        isAvailable(domain, topLevel)\n        collectDomainNamePayment(domain)\n    {\n        // calculate the domain hash\n        bytes32 domainHash = getDomainHash(domain, topLevel);\n\n        // create a new domain entry with the provided fn parameters\n        DomainDetails memory newDomain = DomainDetails({\n            name: domain,\n            topLevel: topLevel,\n            owner: msg.sender,\n            ip: ip,\n            expires: block.timestamp + DOMAIN_EXPIRATION_DATE\n        });\n\n        // save the domain to the storage\n        domainNames[domainHash] = newDomain;\n\n        // create an receipt entry for this domain purchase\n        Receipt memory newReceipt = Receipt({\n            amountPaidWei: DOMAIN_NAME_COST,\n            timestamp: block.timestamp,\n            expires: block.timestamp + DOMAIN_EXPIRATION_DATE\n        });\n\n        // calculate the receipt hash/key\n        bytes32 receiptKey = getReceiptKey(domain, topLevel);\n\n        // save the receipt key for this `msg.sender` in storage\n        paymentReceipts[msg.sender].push(receiptKey);\n\n        // save the receipt entry/details in storage\n        receiptDetails[receiptKey] = newReceipt;\n\n        // log receipt issuance\n        emit LogReceipt(\n            block.timestamp,\n            domain,\n            DOMAIN_NAME_COST,\n            block.timestamp + DOMAIN_EXPIRATION_DATE\n        );\n\n        // log domain name registered\n        emit LogDomainNameRegistered(block.timestamp, domain, topLevel);\n    }\n\n    /*\n     * @dev - function to extend domain expiration date\n     * @param domain - domain name to be registered\n     * @param topLevel - top level\n     */\n    function renewDomainName(bytes memory domain, bytes12 topLevel)\n        public\n        payable\n        isDomainOwner(domain, topLevel)\n        collectDomainNamePayment(domain)\n    {\n        // calculate the domain hash\n        bytes32 domainHash = getDomainHash(domain, topLevel);\n\n        // add 365 days (1 year) to the domain expiration date\n        domainNames[domainHash].expires += 365 days;\n\n        // create a receipt entity\n        Receipt memory newReceipt = Receipt({\n            amountPaidWei: DOMAIN_NAME_COST,\n            timestamp: block.timestamp,\n            expires: block.timestamp + DOMAIN_EXPIRATION_DATE\n        });\n\n        // calculate the receipt key for this domain\n        bytes32 receiptKey = getReceiptKey(domain, topLevel);\n\n        // save the receipt id for this msg.sender\n        paymentReceipts[msg.sender].push(receiptKey);\n\n        // store the receipt details in storage\n        receiptDetails[receiptKey] = newReceipt;\n\n        // log domain name Renewed\n        emit LogDomainNameRenewed(\n            block.timestamp,\n            domain,\n            topLevel,\n            msg.sender\n        );\n\n        // log receipt issuance\n        emit LogReceipt(\n            block.timestamp,\n            domain,\n            DOMAIN_NAME_COST,\n            block.timestamp + DOMAIN_EXPIRATION_DATE\n        );\n    }\n\n    /*\n     * @dev - function to edit domain name\n     * @param domain - the domain name to be editted\n     * @param topLevel - tld of the domain\n     * @param newIp - the new ip for the domain\n     */\n    function edit(\n        bytes memory domain,\n        bytes12 topLevel,\n        bytes15 newIp\n    ) public isDomainOwner(domain, topLevel) {\n        // calculate the domain hash - unique id\n        bytes32 domainHash = getDomainHash(domain, topLevel);\n\n        // update the new ip\n        domainNames[domainHash].ip = newIp;\n\n        // log change\n        emit LogDomainNameEdited(block.timestamp, domain, topLevel, newIp);\n    }\n\n    /*\n     * @dev - Transfer domain ownership\n     * @param domain - name of the domain\n     * @param topLevel - tld of the domain\n     * @param newOwner - address of the new owner\n     */\n    function transferDomain(\n        bytes memory domain,\n        bytes12 topLevel,\n        address newOwner\n    ) public isDomainOwner(domain, topLevel) {\n        // prevent assigning domain ownership to the 0x0 address\n        require(newOwner != address(0));\n\n        // calculate the hash of the current domain\n        bytes32 domainHash = getDomainHash(domain, topLevel);\n\n        // assign the new owner of the domain\n        domainNames[domainHash].owner = newOwner;\n\n        // log the transfer of ownership\n        emit LogDomainNameTransferred(\n            block.timestamp,\n            domain,\n            topLevel,\n            msg.sender,\n            newOwner\n        );\n    }\n\n    /*\n     * @dev - Get ip of domain\n     * @param domain\n     * @param topLevel\n     */\n    function getIP(bytes memory domain, bytes12 topLevel)\n        public\n        view\n        returns (bytes15)\n    {\n        // calculate the hash of the domain\n        bytes32 domainHash = getDomainHash(domain, topLevel);\n\n        // return the ip property of the domain from storage\n        return domainNames[domainHash].ip;\n    }\n\n    /*\n     * @dev - Get price of domain\n     * @param domain\n     */\n    function getPrice(bytes memory domain) public pure returns (uint256) {\n        // check if the domain name fits in the expensive or cheap categroy\n        if (domain.length < DOMAIN_NAME_EXPENSIVE_LENGTH) {\n            // if the domain is too short - its more expensive\n            return DOMAIN_NAME_COST + DOMAIN_NAME_COST_SHORT_ADDITION;\n        }\n\n        // otherwise return the regular price\n        return DOMAIN_NAME_COST;\n    }\n\n    /**\n     * @dev - Get receipt list for the msg.sender\n     */\n    function getReceiptList() public view returns (bytes32[] memory) {\n        return paymentReceipts[msg.sender];\n    }\n\n    /*\n     * @dev - Get single receipt\n     * @param receiptKey\n     */\n    function getReceipt(bytes32 receiptKey)\n        public\n        view\n        returns (\n            uint256,\n            uint256,\n            uint256\n        )\n    {\n        return (\n            receiptDetails[receiptKey].amountPaidWei,\n            receiptDetails[receiptKey].timestamp,\n            receiptDetails[receiptKey].expires\n        );\n    }\n\n    /*\n     * @dev - Get (domain name + top level) hash used for unique identifier\n     * @param domain\n     * @param topLevel\n     * @return domainHash\n     */\n    function getDomainHash(bytes memory domain, bytes12 topLevel)\n        public\n        pure\n        returns (bytes32)\n    {\n        // @dev - tightly pack parameters in struct for keccak256\n        return keccak256(abi.encodePacked(domain, topLevel));\n    }\n\n    /*\n     * @dev - Get recepit key hash - unique identifier\n     * @param domain\n     * @param topLevel\n     * @return receiptKey\n     */\n    function getReceiptKey(bytes memory domain, bytes12 topLevel)\n        public\n        view\n        returns (bytes32)\n    {\n        // @dev - tightly pack parameters in struct for keccak256\n        return\n            keccak256(\n                abi.encodePacked(domain, topLevel, msg.sender, block.timestamp)\n            );\n    }\n\n    /**\n     * @dev - Withdraw function\n     */\n    function withdraw() public onlyOwner {\n        payable(msg.sender).transfer(address(this).balance);\n    }\n}\n",
  "sourcePath": "/Users/samayorinde/Desktop/Name-Registering-Service/contracts/NameRegisteringService.sol",
  "compiler": {
    "name": "solc",
    "version": "0.8.0+commit.c7dfd78e.Emscripten.clang"
  },
  "schemaVersion": "3.4.6",
  "updatedAt": "2022-03-14T09:18:21.157Z",
  "devdoc": {
    "kind": "dev",
    "methods": {
      "constructor": {
        "details": "- Constructor of the contract"
      },
      "getReceiptList()": {
        "details": "- Get receipt list for the msg.sender"
      },
      "owner()": {
        "details": "Returns the address of the current owner."
      },
      "renounceOwnership()": {
        "details": "Leaves the contract without owner. It will not be possible to call `onlyOwner` functions anymore. Can only be called by the current owner. NOTE: Renouncing ownership will leave the contract without an owner, thereby removing any functionality that is only available to the owner."
      },
      "transferOwnership(address)": {
        "details": "Transfers ownership of the contract to a new account (`newOwner`). Can only be called by the current owner."
      },
      "withdraw()": {
        "details": "- Withdraw function"
      }
    },
    "version": 1
  },
  "userdoc": {
    "events": {
      "LogDomainNameRegistered(uint256,bytes,bytes12)": {
        "notice": "EVENTS"
      }
    },
    "kind": "user",
    "methods": {
      "DOMAIN_NAME_COST()": {
        "notice": "CONSTANTS "
      },
      "domainNames(bytes32)": {
        "notice": "STATE VARIABLES "
      }
    },
    "version": 1
  }
}